:020000040800F2
:1000000058040020FD0E0008C50E0008C70E0008A9
:10001000C90E0008CB0E0008CD0E0008000000003D
:10002000000000000000000000000000CF0E0008EB
:10003000D10E000800000000D30E0008D50E000805
:10004000190F00081D0F0008210F0008250F0008D8
:10005000290F00082D0F0008310F0008350F000888
:10006000390F00083D0F0008410F0008450F000838
:10007000490F00084D0F0008510F0008550F0008E8
:10008000590F00085D0F0008610F0008650F000898
:10009000690F00086D0F0008710F0008750F000848
:1000A000790F00087D0F0008810F0008850F0008F8
:1000B000890F00088D0F0008910F0008950F0008A8
:1000C000990F00089D0F0008A10F0008A50F000858
:1000D000A90F0008AD0F0008B10F0008B50F000808
:1000E000B90F0008BD0F0008C10F00082DE9F84343
:1000F000040016D02078DFF8A464C10713D5706817
:1001000000F00C00042807D0706800F00C000828EC
:1001100040D17068C1033DD53068810303D5606864
:10012000002800F0F4802078DFF88074810719D56A
:10013000706810F00C0F07D0706800F00C000828F1
:1001400060D17068C1035DD43068810703D5206930
:10015000012840F0DC803168606921F0F80141EA53
:10016000C00131602178080770D5A069DFF840141C
:10017000002865D001220A6000F032FA0546706A54
:10018000810700F1C68000F02BFA401B0228F6D947
:10019000032035E16068B0F5803F04D1306840F459
:1001A0008030306014E008B930680AE0B0F5A02F64
:1001B000306806D140F480203060316841F48031ED
:1001C00005E020F480303060316821F48021316016
:1001D000606858B100F004FA054630688103A2D483
:1001E00000F0FEF9401B6528F7D3D1E700F0F8F9DD
:1001F00005463068810396D500F0F2F9401B65286A
:10020000F7D3C5E7206970B10121396000F0E8F942
:1002100005463068810700F1B68000F0E1F9401B27
:100220000228F6D9B4E7386000F0DAF905463168FB
:10023000880797D500F0D4F9401B0228F7D9A7E723
:10024000086000F0CDF90546706A810770D500F0AE
:10025000C7F9401B0228F7D99AE708B9306A09E0C4
:100260000528306A06D140F004003062306A40F060
:10027000010005E0400840003062306A20F00400D0
:10028000306241F28938E06868B100F0A9F981462E
:10029000306A810700F1848000F0A2F9A0EB090028
:1002A0004045F5D374E700F09BF98146306A810739
:1002B00076D500F095F9A0EB09004045F6D367E745
:1002C00000F08EF9401B02287BD961E700F088F925
:1002D000001B022840F28F805AE700F093F8044692
:1002E0003068810140F18B8000F07AF9001B022810
:1002F000F6D94DE701280AD07068226A00F48031EF
:10030000914202BF00F47010616A884277D00120E8
:1003100076E0DFF88C020168C9084FF47A72B1FB0D
:10032000F2F2009200BF0098411E00280091F9D11E
:100330002078410739D5F0690025C10009D4F0695A
:1003400040F08050F0610125F06900F0805000908D
:100350000098DFF86082D8F80000C1051BD4D8F8F7
:10036000000040F48070C8F8000000F039F98146C0
:10037000D8F80000C1050ED400F032F9A0EB090056
:100380006528F5D304E73068616920F0F80040EA99
:10039000C1003060E6E6E06801287FF45EAF65E703
:1003A0001DB1F06920F08050F061E06938B37168E8
:1003B00001F00C0108299DD002288ED100F022F80E
:1003C0000546306881013FF57BAF206AB0F5803F7C
:1003D00005D17168A06821F4003101437160726831
:1003E000206A616A22F4741202430A437260012097
:1003F00000F009F80446306881017FF567AF0020FE
:10040000BDE8F2830020386600F0EAB82DE9F0413B
:100410000400884672D0684E00F077F802D200F0EF
:100420006FF86BD120685D4D810712D5400703D569
:10043000696841F4E06169602078010703D5686864
:1004400040F4605068606968A06821F0F0010143E1
:1004500069602178C80749D56068012802D12968F8
:100460008A0303E00228296802D18A0102D445E008
:100470008A0743D56968890840EA8100686000F00E
:10048000AFF807466868616800F00C00B0EB810FB8
:100490002CD000F0A5F8C01B41F289318842F1D37D
:1004A000032021E02078410705D56A68E06822F43E
:1004B000E06202436A602178080706D5696820690E
:1004C00021F4605141EAC001696000F049F86A68AE
:1004D0003A49334BC2F30312895CC8401860324872
:1004E000006800F083F80020BDE8F081306800F07B
:1004F00007008045D6D200F003F8D3D00120F3E7FF
:100500003168C90848EAC1013160306800F007006D
:100510004045704730B585B00C4601A8102100F069
:1005200085F8022503210295049100224FF4807181
:10053000234D0392019101A9686940F004006861AC
:10054000686900F00400009000981E4800F072F8FE
:10055000286820F0E06004432C6005B030BD000046
:10056000174910480A6802F00C03082B00D07047A6
:1005700010B500BF15A4C2F38343D203E35C08D5D2
:100580000968584315A3C1F340415A5CB0FBF2F02F
:1005900010BD18460C49484310BD00000010024031
:1005A0000C00002000127A000800002000004242E7
:1005B000800442420070004000200240EC0E00081F
:1005C000041002400008014000093D000203040538
:1005D000060708090A0B0C0D0E0F1010010200008F
:1005E00001484068704700BF0000002038B50D4D3D
:1005F0000D4B2A7804464FF47A711868B1FBF2F279
:10060000B0FBF2F000F02BF950B9102C08D2002208
:1006100021464FF0FF3000F005F9AC60002032BDFC
:10062000012032BD000000200C000020002200F05C
:1006300035B900002DE9F8470027BE465F4A604BF8
:100640004FF00F0882460BE0D6683040D06006E0DD
:1006500094604C68A402F7D5D0680643D6607F1C2E
:100660000E6836FA07F000F0A380012000FA07F5C3
:100670002E40AE42F3D1486858B301281AD0022860
:100680001FD0032833D0112817D012281DD04D4C6D
:10069000A0421CBF4C4CA0421BD04C4CA0421CBFE3
:1006A0004B4CA04215D04B4CA0421CBF4A4CA04220
:1006B0000FD01EE0D1F80CE01BE0C86800F1040E7A
:1006C00017E0C86800F1080E13E0C86800F10C0ECE
:1006D0000FE0886810B94FF0040E0AE001284FF0CF
:1006E000080E14BFCAF81450CAF8105001E04FF0B9
:1006F000000EB6F5807F03D250464FEA870C05E026
:10070000A7F108040AF104004FEA840C046808FA0F
:100710000CF5AC430EFA0CF52C4304604868C0009D
:100720009DD51868DFF8B4C040F0010018601C685F
:1007300004F001040094BC000098B8085CF8205054
:1007400004F00C0408FA04F925EA0909244DAA4525
:1007500008BF00250ED0234DAA4508BF012509D0AA
:10076000214DAA4508BF022504D0204DAA450CBF43
:100770000325042505FA04F444EA09044CF8204052
:10078000F0434C68E40314684CBF344304401460E5
:100790004C68A40354684CBF3443044054604C6814
:1007A0009568E4024CBF46EA050400EA05044FE7F9
:1007B000BDE8F18702B909040161704700040140F6
:1007C000181002400000111000001210000021104B
:1007D000000022100000311000003210080001401B
:1007E00000080140000C01400010014000140140CD
:1007F0000901020002D4244881547047234B02F0BF
:100800000F021A4402F8041C7047214B19684FF676
:10081000FF020002114000F4E06008431D49084354
:100820001860704738B51A4B1C68C4F30223C3F133
:100830000704052C28BF04241D1D072D34BF0023E9
:10084000DB1E012505FA04F4641E2140994005FAD7
:1008500003F35B1E1A401143BDE83440C8E710B5EE
:10086000401EB0F1807F01D3012010BD0A4C6060B2
:100870000F214FF0FF30FFF7BBFF0021A1600720E1
:100880002060002010BD000000E400E018ED00E052
:100890000CED00E00000FA0510E000E000B500BF3C
:1008A000130096469446103928BFA0E80C50FAD899
:1008B0005FEA417C28BF0CC048BF40F8042BC90741
:1008C00028BF20F8022B48BF00F8012B00BD000014
:1008D00038B5040001D1012032BD00F04BF818B941
:1008E00000F044F800F055F92DE090F83D10012992
:1008F00001D001207047022180F83D100168CA68CC
:1009000042F00102CA600068DFF87010884218BF28
:10091000B0F1804F07D0DFF8681088421CBFDFF8C5
:100920006420904209D1816801F00701062908D0AE
:10093000016841F00101016003E0026842F0010238
:1009400002600020704702206870211D206800F0BE
:1009500078F80120A872A870E87028716871A871F1
:10096000E871287268726870002032BD0021297019
:100970002046704704F13C0568787047002C014020
:10098000000400400008004038B500F04EF801D1E6
:10099000022032BD0120207002226270DFF80001C7
:1009A0002A689368034093600868020018BF102803
:1009B0002DD0202818BF302829D0402823D05028F7
:1009C00016D0602818D0702803D0B0F5005F07D08B
:1009D00021E000F025F82868816841F0770105E002
:1009E00000F01EF82868816841F48041816012E0BF
:1009F00000F012F850210BE0CA684968286800F03E
:100A000068F8602104E000F007F8402100E00146AA
:100A1000286800F070F80EE0CA684968286849E064
:100A2000CB684A68896828686DE0054605F13C0492
:100A3000207801287047012060700021217000207B
:100A400032BD70B5174E0368174C184DB04218BF31
:100A5000B0F1804F03D0A84218BFA04209D14A6824
:100A600023F070031343B0421CBFB0F1804FA84283
:100A700001D0A04203D1CA6823F4407313434A69EA
:100A800023F0800313430360B0428B68C3620A689B
:100A9000826202D10969064A11600123436170BD77
:100AA0008800FFFF002C01400008004000040040C7
:100AB000302C014010B5036A046A640864000462C3
:100AC00023F00A03846924F0F00444EA02148461E8
:100AD00023E010B5036A23F0100303628369046AFC
:100AE00023F4704343EA023324F0A004836144EA10
:100AF0000114046210BD826822F07002114341F0BB
:100B000007018160704710B5846824F47F44214355
:100B1000114341EA0321816010BD1943016210BDF8
:100B2000D0B586B002A81021FFF780FD4FF08040BD
:100B30002FA44FF6FF71D4E900672A4C20601420DF
:100B4000E06000228020CDE90067A0616160A260C2
:100B500022612046FFF7BCFE08B100F0A6F84FF472
:100B600000510291002203920492059202A92046AC
:100B7000FFF70AFF08B100F098F8002100910191F9
:100B80002046694600F094F808B100F08EF806B0EF
:100B9000D0BD18B585B0044601A81021FFF746FD69
:100BA0002468B4F1804F1BD10F48416841F0010126
:100BB0004160416801F0010100910099026842F032
:100BC000040202600121006800F00400009000228D
:100BD0000098064801910292039201A9FFF72AFDAD
:100BE00006B010BD1000002018100240000801409F
:100BF000000000000000000038B500F08BF800F0A5
:100C00001FF800F099F8FFF78BFF0A4C0A4D2046B9
:100C1000FFF76BFE04E04FF400512846FFF7CAFDD2
:100C20000649E0680A68400890422CBF0122002271
:100C3000F1E70000100000200010014024000040F7
:100C400000B58FB005A82821FFF7F0FC68461421F5
:100C5000FFF7ECFC4FF4803106910122102109923C
:100C60000A9103200590022200210C920D910E9111
:100C700005A8FFF73BFA08B100F017F80121019130
:100C80000F200090002200210292039104926846F6
:100C9000FFF7BCFB08B100F008F800224FF0E0615C
:100CA0000020FFF737FC0FB000BD72B6FEE7000072
:100CB00070B500F13C031A78012A01D1022070BD01
:100CC00001221A7002245C7005686E68AC680A68BC
:100CD00026F0700616436E6002680C48824218BF08
:100CE000B2F1804F05D00A4882421CBF064DAA428D
:100CF00004D1486824F080040443946001215970B1
:100D00000020187070BD000000080040002C014059
:100D10000004004080B50748016841F010010160FF
:100D20000320FFF772FD0F20FFF760FC00F04CF886
:100D3000002002BD0020024018B585B06846102191
:100D4000FFF774FC1D48046844F010040460016857
:100D50001B4C01F0100104910499026842F020023A
:100D60000260036803F0200304930499026842F0D0
:100D7000040202600022006800F0040004904FF4B6
:100D8000005104982046FFF715FD4FF400510091E3
:100D9000012201920021029102220392694620461B
:100DA000FFF748FC4FF480700221009001910391FD
:100DB00069460448FFF73EFC06B010BD181002401B
:100DC00000100140000801400E4881B0016841F068
:100DD00001010160026802F001020092009942687C
:100DE00042F080524260406800F0805000900098CD
:100DF0000548016821F0E06141F00071016001B037
:100E0000704700BF181002400400014030B501686F
:100E100084684218416802EB5103C9070BD54C4462
:100E200009E012F9011B12F8015B002904F8015BCB
:100E300005D5491CF9D19A42F3D10C3030BD491E79
:100E4000F1D5F8E710B5074979441831064C7C44D0
:100E5000163404E00A68081D114488470146A1427F
:100E6000F8D110BD0800000014000000A1FFFFFF32
:100E7000540100001A0000000000002000F00DF8EE
:100E8000002801D0FFF7DEFFAFF300800020AFF3B2
:100E90000080FFF7B1FE00F002F80120704700F07B
:100EA00001B800000746384600F002F8FBE70000F2
:100EB00080B5AFF30080024A11001820ABBEFBE7FB
:100EC00026000200FEE7FEE7FEE7FEE7FEE77047CA
:100ED0007047704700F000B802494A6808788218E5
:100EE0004A607047000000207047000000000000CA
:100EF00000000000010203040607080901488047BA
:100F000001480047E90E00080D0F0008AFF300800C
:100F1000AFF30080FFF7B2FFFFF7FEBFFFF7FEBFA2
:100F2000FFF7FEBFFFF7FEBFFFF7FEBFFFF7FEBFF5
:100F3000FFF7FEBFFFF7FEBFFFF7FEBFFFF7FEBFE5
:100F4000FFF7FEBFFFF7FEBFFFF7FEBFFFF7FEBFD5
:100F5000FFF7FEBFFFF7FEBFFFF7FEBFFFF7FEBFC5
:100F6000FFF7FEBFFFF7FEBFFFF7FEBFFFF7FEBFB5
:100F7000FFF7FEBFFFF7FEBFFFF7FEBFFFF7FEBFA5
:100F8000FFF7FEBFFFF7FEBFFFF7FEBFFFF7FEBF95
:100F9000FFF7FEBFFFF7FEBFFFF7FEBFFFF7FEBF85
:100FA000FFF7FEBFFFF7FEBFFFF7FEBFFFF7FEBF75
:100FB000FFF7FEBFFFF7FEBFFFF7FEBFFFF7FEBF65
:100FC000FFF7FEBF0001F9000010FC000124F4B798
:010FD0000020
:0400000508000F0DD3
:00000001FF
